:020000040800F2
:10000000500A0020CD010008332100080D1C000813
:100010003121000819040008BF2600080000000074
:10002000000000000000000000000000FF230008A6
:100030005304000800000000FD230008012400080C
:10004000E7010008E7010008E7010008E7010008F0
:10005000E7010008E7010008E7010008E7010008E0
:10006000E7010008E7010008E70100081D04000897
:10007000E7010008E7010008E7010008E7010008C0
:10008000E7010008E7010008E7010008E7010008B0
:10009000E7010008E7010008E7010008E7010008A0
:1000A000E7010008E7010008E7010008E701000890
:1000B000E7010008E7010008E7010008E701000880
:1000C000E7010008E7010008E7010008E701000870
:1000D000E7010008E7010008E7010008E701000860
:1000E000E7010008E7010008E7010008E701000850
:1000F000E7010008E7010008E7010008E701000840
:10010000E7010008E7010008E7010008E70100082F
:10011000E7010008E7010008E7010008E70100081F
:10012000E7010008E7010008E7010008E70100080F
:1001300000F002F800F03AF80AA090E8000C8244BF
:100140008344AAF10107DA4501D100F02FF8AFF29C
:10015000090EBAE80F0013F0010F18BFFB1A43F0A5
:10016000010318470C4600002C460000103A24BF3B
:1001700078C878C1FAD8520724BF30C830C144BF0C
:1001800004680C607047000000230024002500264E
:10019000103A28BF78C1FBD8520728BF30C148BFEA
:1001A0000B6070471FB51FBD10B510BD00F058F8AB
:1001B0001146FFF7F7FF02F0C3FA00F076F803B438
:1001C000FFF7F2FF03BC00F07DF80000094880470C
:1001D00009480047FEE7FEE7FEE7FEE7FEE7FEE729
:1001E000FEE7FEE7FEE7FEE704480549054A064B41
:1001F000704700007F2400083101000850040020EF
:10020000500A002050060020500600204FF0000247
:1002100000B5134694469646203922BFA0E80C50FC
:10022000A0E80C50B1F12001BFF4F7AF090728BFD7
:10023000A0E80C5048BF0CC05DF804EB890028BF53
:1002400040F8042B08BF704748BF20F8022B11F07C
:10025000804F18BF00F8012B7047704770477047F8
:10026000754600F02BF8AE4605006946534620F06F
:100270000700854618B020B5FFF7B6FFBDE820405F
:100280004FF000064FF000074FF000084FF0000B52
:1002900021F00701AC46ACE8C009ACE8C009ACE805
:1002A000C009ACE8C0098D46704710B50446AFF3ED
:1002B00000802046BDE81040FFF781BF004870472E
:1002C000F003002001491820ABBEFEE72600020023
:1002D0007047000070B5044600688168C943C907CB
:1002E00017D1816821F00101816000F0BFFD054652
:1002F0000AE000BF00F0BAFD401B022804D92068C4
:100300008068C043C00706D020688068C043C0072B
:10031000F0D0002070BDA06A40F01000A062E06A3A
:1003200040F00100E062012070BD10B50146406A56
:10033000826A12F0500F05D0006A026BBDE81040CF
:1003400008461047816A41F400718162016889683A
:10035000C1F3424107290CD1017B51B9816A21F4D3
:1003600080718162816AC90403D4816A41F001010C
:10037000816200F05BF910BD10B5406A816A41F0FE
:1003800040018162C16A41F00401C16200F05BF981
:1003900010BD10B5406A00F055F910BDF8B5002643
:1003A0000446009600688168C943C9072DD081685A
:1003B00041F001018160164816490068B0FBF1F078
:1003C00000E0401E00900028FBD100F04FFD0546E4
:1003D00016E000BF00F04AFD401B022810D920683B
:1003E0008068C043C0070BD0A06A40F01000A06234
:1003F000E06A40F00100E06284F824600120F8BD6A
:1004000020688068C043C007E4D10020F8BD000028
:100410007C00002040420F00FEE70000014800F091
:1004200073BA0000C802002030B590F84050012493
:10043000AC40C56B6C60046863604368102B036854
:1004400003D099600068C26030BD9A600068C160E6
:1004500030BD704772B6FEE7F8B50025044600953A
:1004600090F8240001280BD0012084F824002046B5
:10047000FFF730FF2046FFF791FF060002D050E063
:100480000220F8BDA06A20F4885040F00200A0626B
:10049000022000F013FF25490968B1FBF0F040008D
:1004A00000E0401E00900028FBD12068816841F0E8
:1004B0000801816000F0DAFC074608E000F0D6FC95
:1004C000C01B0A2803D920688068000715D420685B
:1004D00080680007F2D42068816841F004018160DF
:1004E00000F0C4FC074612E000F0C0FCC01B0A2864
:1004F0000DD920688068400709D5A06A20F0020065
:1005000040F01000A06284F824500120F8BD20685B
:1005100080684007E8D4A06A20F0020040F00100A3
:10052000A06284F824503046F8BD00007C00002012
:10053000F8B50024009490F824202546012A12D012
:10054000012280F824204A681F23072A0DD206685A
:10055000776B521E02EB820293409F430B689340DD
:100560001F43776319E00220F8BD06680D2A0AD2FE
:10057000376BD21F02EB820293409F430B6893407C
:100580001F43376309E0F76A0D3A02EB820293409A
:100590009F430B6893401F43F7620A68072306686E
:1005A0000A2A0AD3F7680A3A02EB420293409F43B1
:1005B0008B6893401F43F76008E0376902EB420203
:1005C00093409F438B6893401F4337610A68102A0A
:1005D00001D0112A20D1124B02689A4217D1936898
:1005E0001B0219D4936843F400039360096810292F
:1005F00012D10C490C4A0968B1FBF2F101EB8101FF
:10060000490000E0491E00910029FBD104E0816A05
:1006100041F020018162012480F824502046F8BD79
:10062000002401407C00002040420F000068034984
:10063000884202D10249012008707047002401401D
:1006400000000020704770472DE9F04104004FF092
:10065000000514D0A06A002628B9E66284F8246058
:10066000204600F083F82046FFF734FEA16A01F02F
:100670001001014304D0A06A40F01000A0626BE0BA
:10068000A16A21F4885141F00201A1623349236833
:100690008B42E16904D1B1F5402F01D14FF4002123
:1006A000277B4FF4807C41EA470261680A43A168D6
:1006B000614509D0012907D05FF0000194F814E0EA
:1006C000BEF1010F02D00AE06146F7E7C7B1A76AA1
:1006D00047F02007A762E76A47F00107E7625F6813
:1006E00027F469470F435F60236899681C4F3940BE
:1006F00011439960A16861450BD0012909D00CE034
:10070000DFF860E0A7690EEB47370F4347F400615D
:10071000E5E7218A0D05A5F580152168CB6A23F44C
:1007200070032B43CB62216889680F4B19409142BB
:1007300008D1E662A16A21F0020141F00101A16243
:10074000BDE8F081A06A20F0020040F01000A06235
:10075000E06A40F00100E0620120F1E7003C014066
:10076000FDF7E1FF00E0FFFFFE0E1FFF70B586B052
:1007700000250646009501950295039500681A49E3
:1007800088422ED11949886940F4007088618869CF
:1007900000F400700490886940F004008861886962
:1007A000694600F004000490CC20009003200190E2
:1007B0000F4800F055FA104C0E48C4E9000580209F
:1007C000C4E9025040002061800060612020C4E93B
:1007D0000605204600F0BCF908B1FFF73BFE346285
:1007E000666206B070BD00000024014000100240A7
:1007F0000008014008000240C80200202DE9F0472F
:10080000894604463B4900683B4F0E1D904688428E
:1008100001D0B84207D1306810F4702F03D0012501
:100820002846BDE8F08794F8240001280CD0012068
:1008300084F824002046FFF7B1FD05004FF00000CA
:1008400004D084F82400EBE70220EAE7A16A40F62E
:100850000162914341F48071A1622168B94218D1CB
:10086000326812F4702F14D0A16A41F48011A16291
:100870003168490505D5A16A21F4005141F4805140
:10088000A162A16AC9040AD5E16A21F00601E16208
:1008900006E0A26A22F48012A2624968E9E7E062F7
:1008A00084F82400216A15488862216A1448C862C5
:1008B000216A1448086321686FF00200086020680C
:1008C000816841F480718160216843464A464C3119
:1008D000206A00F07BF920688168C1F34241072952
:1008E000816803D041F48011816099E741F4A0014F
:1008F000FAE7000000240140002801402B03000813
:1009000093030008790300082DE9F05FC16B0A68C2
:1009100001680B68046C4FF0040808FA04F8844D71
:10092000844E854FDFF814C2DFF81492DFF814A26A
:10093000DFF814B2DFF814E218EA020F65D05FEABC
:10094000437862D50A68920603D40A6822F004024A
:100950000A60DFF8F0814FF48062016808F1140842
:1009600013011402414524D9A9420DD0B1420FD040
:10097000B9421AD0614515D0494515D0514501D12C
:10098000120312E0594501D104220EE0714501D154
:1009900040220AE06D4D1435A94206D06B4A283238
:1009A000914201D11A4600E022466749091F0A60B8
:1009B00029E0A94213D0B14215D0B94220D06145F7
:1009C0001BD049451BD0514502D14FF4800217E09E
:1009D000414502D14FF0806212E0594501D1042215
:1009E0000EE0714501D140220AE0584D1435A9426C
:1009F00006D0564A2832914201D11A4600E02246DA
:100A00004B4908394A60C16A71E04FF0020808FAA0
:100A100004F818EA020F70D05FEA83786DD50A688F
:100A2000920606D40A6822F00A020A60012180F8C0
:100A30002110DFF810814FF40072016808F11408EA
:100A400013011402414524D9A9420DD0B1420FD05F
:100A5000B9421AD0614515D0494515D0514501D14B
:100A6000120312E0594501D102220EE0714501D175
:100A700020220AE0354D1435A94206D0334A2832E7
:100A8000914201D11A4600E022462F49091F0A600F
:100A900029E0A94213D0B14215D0B94220D0614516
:100AA0001BD049451BD0514502D14FF4001217E02D
:100AB000414502D14FF0007212E0594501D10222A6
:100AC0000EE0714501D120220AE0204D1435A942E3
:100AD00006D01E4A2832914201D11A4600E0224631
:100AE000134908394A60002180F82010816A0029E2
:100AF0001CD0BDE8F05F0847FFE70825A540154278
:100B000014D01A0712D50A6822F00E020A6090F873
:100B10004020C36B012101FA02F25A60816380F820
:100B20002110002180F82010016BE0E7BDE8F09F64
:100B3000080002401C000240300002404400024015
:100B4000580002406C000240080402401C040240AD
:100B500030B560B11A4B026814219A4209D2194B80
:100B60001344B3FBF1F18900016417490AE0012045
:100B700030BD134B5B421344B3FBF1F189000164B8
:100B80000F490839C163022180F82110136843F628
:100B9000F0718B43F0E901142143D0E902452C4365
:100BA0002143046921434469214384692143194352
:100BB000116000214163012242770177084630BD70
:100BC00008040240F8FFFDBF0000024070B5044673
:100BD00090F82000002501280CD0012084F8200086
:100BE00094F821600020012E06D084F82000022510
:100BF000284670BD022070BD022684F82160A063E3
:100C00002068066826F0010606602046FFF70CFC07
:100C1000E06A00282068016802D041F00E0106E079
:100C200021F0040101602068016841F00A010160BF
:100C30002068016841F001010160D9E770B5044600
:100C400000F014F90546601C02D004480078044402
:100C500000F00CF9401BA042FAD370BD70000020D8
:100C60002DE9F84FDFF8C8910024A9F1040B2346C1
:100C70000F2709F1040AABF1040ED1E00125A540CC
:100C800006EA0502AA4276D1DFF8A8C14E68A6EBB3
:100C90000C0866452BD00DDC032E34D005DC36B3B2
:100CA000012E19D0022E2FD11BE0112E16D0122E9C
:100CB0002AD119E0B8F5881F19D006DCB8F5803FB5
:100CC00015D0B8F5801F1FD111E0B8F5001F0ED068
:100CD000B8F5041F18D10AE0CB6815E0CB681B1DDE
:100CE00012E0CB6808330FE0CB680C330CE08B6864
:100CF0002BB1012B4FF0080303D0456104E004231E
:100D000002E0056100E00023FF2A01D8064601E069
:100D100000F104064FEA840501D9A5F12005D6F8B3
:100D2000008007FA05FC28EA0C0803FA05F548EAF2
:100D30000508C6F800804D68ED0070D53E4DAE69DF
:100D400046F00106AE61AD6924F0030605F0010529
:100D500000953A4D06EB050CDCF80850A607360F57
:100D600007FA06F825EA0805DFF8D480404503D1E4
:100D70004FF0000825E052E0DFF8C880404502D17E
:100D80004FF001081DE0DFF8C080404502D14FF070
:100D9000020816E0DFF8B480404502D14FF00308A6
:100DA0000FE0DFF8AC80404502D14FF0040808E0C6
:100DB000DFF8A080404502D14FF0050801E04FF078
:100DC000060808FA06F848EA0508CCF808804D68D5
:100DD000D9F80060ED024D4601D5164300E0964378
:100DE0002E604D68DAF80060AD02554601D5164315
:100DF00000E096432E604D68DBF80060AD035D4671
:100E000001D5164300E096432E604D68DEF8006081
:100E1000ED03754601D5164300E096432E60641C31
:100E20000A681646E2407FF429AFBDE8F88F00005B
:100E300008040140000011100010024000000140B1
:100E400000080140000C0140001001400014014066
:100E500000180140001C01408068084000D00120BB
:100E600070470AB1016170470904FBE701488068D7
:100E7000704700007000002070B5040025D094F881
:100E80003D00002520B984F83C50204600F050F980
:100E9000242084F83D002068016821F001010160F0
:100EA0002068016841F4004101602068016821F474
:100EB0000041016000F06AFB4D4A6168914201D82F
:100EC0004C4900E04C49884201D2012070BD4B4999
:100ED0002368B0FBF1F15E6826F03F060E435E60CA
:100EE0006368934206D94FF4967359434FF47A736B
:100EF000B1FBF3F12368491C1E6A26F03F0631431B
:100F000019626168914210D84900401EB0FBF1F2AD
:100F1000521CC2F30B02042A01D2042022E0B0FBCF
:100F2000F1F0401CC0F30B001CE0A268F2B301EB2F
:100F3000C10303EB0116431EB3FBF6F35B1C43F442
:100F400080431B0549D092B301EBC10202EB0111B2
:100F5000401EB0FBF1F0401CC0F30B0040F4804099
:100F600040F400402168CA694CF6FF739A4310436D
:100F7000C861D4E9071001432068026822F0C0026A
:100F800011430160D4E9030101432068826848F2FB
:100F9000FF339A4311438160D4E905010843216876
:100FA000CA6822F0FF021043C86001E00EE016E0BC
:100FB0002068016841F0010101602564202084F867
:100FC0003D00256384F83E50002070BD01EB4106D2
:100FD000431EB3FBF6F35B1CB3E70120C2E701EB52
:100FE0004101401EB0FBF1F0401CC0F30B00B7E71D
:100FF000A086010080841E0000093D0040420F00D1
:101000002DE9FF4F83B09A46DDE9119793460446D8
:10101000DDF84080FFF72AFF054694F83D002028C0
:101020007FD11923012240492046009500F086FE19
:10103000002876D194F83C00012872D0012084F871
:101040003C0020680168C90703D1016841F0010133
:1010500001602068016821F400610160212084F8AA
:101060003D00402084F83E0000262664C4F8248019
:10107000A4F82A90608D20852C48E062CDE90075A7
:1010800053465A462046049900F0D8FD70B930E026
:101090002A463946204600F0F7FE58B1206C042855
:1010A00004D12068016841F400710160012007B09B
:1010B000BDE8F08F606A216800780861606A401CB2
:1010C0006062218D491E89B22185628D521E628522
:1010D00022685369DB435B070BD469B10078106168
:1010E000606A401C6062208D401E2085608D401E1D
:1010F0006085208D0028CBD12A463946204600F055
:10110000F1FD0028CAD154F83D0B016841F400718B
:101110000160202004F81E09E67766770020C6E704
:10112000FFE70220C3E70000020010000000FFFFFD
:1011300010B586B0002100910191029103910068E1
:101140000F4988421AD10F4CA06940F00800A061F5
:10115000A069694600F008000490C02000901220A9
:101160000190032003900848FFF77AFDE06940F4FE
:101170000010E061E06900F40010049006B010BDBA
:101180000054004000100240000C014002488168F9
:10119000027811448160704770000020074810B544
:1011A000016841F010010160032000F075F80F2084
:1011B00000F006F800F024F8002010BD00200240E6
:1011C00070B50D4D04464FF47A712878B1FBF0F0FC
:1011D0000A490968B1FBF0F000F0AEFB48B9102CE9
:1011E00007D200222146501E00F036F800206C6025
:1011F00070BD012070BD0000700000207C00002048
:101200000C4808B5816941F001018161816901F0F3
:1012100001010091C16941F08051C161C06900F0D4
:10122000805000900448416821F0E06141F0007175
:10123000416008BD0010024000000140002809DBA9
:1012400000F01F02012191404009800000F1E020E0
:10125000C0F8001170470000F0B40E4B1B680C463C
:10126000C3F30223C3F10705042D00D90425191D7A
:10127000072901D2002300E0DB1E012606FA05F152
:10128000491E214099409E40761E16403143F0BCD5
:1012900001F016BA0CED00E0064900F007020868FC
:1012A0004FF6FF03184040EA0220034A104308604B
:1012B000704700000CED00E00000FA0510B5014693
:1012C0000020284C04292FD00BDC012930D0022922
:1012D00029D100F06BF96168C1F38131491C4900E3
:1012E0001FE0082920D010291DD161682268D20191
:1012F00019D51D48C1F38342C903805C0AD56168D2
:10130000194AC1F34041921E515C184AB2FBF1F1F7
:10131000484301E0164948436168490203D440004C
:101320000321B0FBF1F010BDBDE8104000F04EB954
:10133000226AC2F30121012903D1920701D5C80312
:1013400010BD022905D1626A920702D549F64040D4
:1013500010BD0329FCD121688903F9D54FF224403F
:1013600010BD0000001002407E3A000800127A0012
:1013700000093D002DE9F84305460078354CC007CB
:1013800054D0E0690026C00008D4E06940F08050E5
:10139000E061E069012600F0805000902E4801686D
:1013A000C90512D40168804641F480710160FFF7DD
:1013B0005DFD074605E000BFFFF758FDC01B642830
:1013C00023D8D8F80000C005F6D5206A10F4407084
:1013D00021D0A98801F4407181421CD0206A1F49A4
:1013E000012220F440700A6000220A602062C007D7
:1013F00011D0FFF73BFD074641F2883808E000BFF7
:10140000FFF734FDC11B414502D90320BDE8F88335
:10141000206A8007F4D5206A696820F44070084388
:1014200020621EB1E06920F08050E06128788007DA
:1014300005D56068A96820F44040084360602878BA
:10144000C00605D56068696920F4800008436060C3
:101450000020DBE7001002400070004040044242E0
:101460002DE9F0470F46050061D0434E306800F08B
:101470000700B84209D2306820F0070038433060D6
:10148000306800F00700B84251D128683B4C810712
:1014900012D5400703D5606840F4E06060602878AA
:1014A000000703D5606840F4605060606068A96818
:1014B00020F0F000084360602878C00728D06868F2
:1014C000012810D02168022810D0890700292EDABF
:1014D000616821F0030101436160FFF7C7FC8046AA
:1014E00041F288390DE021688903EFE78901EDE7D2
:1014F000FFF7BCFCA0EB0801494502D90320BDE879
:10150000F0876068696800F00C00B0EB810FEFD1E4
:10151000306800F00700B8420BD9306820F00700AF
:1015200038433060306800F00700B84201D0012035
:10153000E5E72878400705D56068E96820F4E060B1
:10154000084360602878000706D56068296920F4A0
:10155000605040EAC100606000F038F86168084AF5
:10156000C1F30311515CC840064908600648006891
:10157000FFF726FE0020C2E70020024000100240D4
:101580008E3A00087C0000207400002004480549C1
:1015900000684968044AC1F30221515CC8407047A1
:1015A0007C000020001002409E3A000804480549D3
:1015B00000684968044AC1F3C221515CC8407047C1
:1015C0007C000020001002409E3A00080E4A51683C
:1015D0000E4801F00C03042B11D0082B0FD10C483E
:1015E000C1F38343C903C05C0AD55168084AC1F3FB
:1015F0004041921E515C054A5043B0FBF1F07047E8
:1016000004494843704700000010024000127A006D
:101610006C3A000800093D002DE9F84F040070D035
:101620002078C04DC00749D06868C0F38100012808
:1016300007D06868C0F38100022809D16868C00338
:1016400006D52868800339D560680028E7D035E0E2
:101650006068B0F5803F0BD010B1B0F5A02F11D06D
:10166000286820F480302860286820F4802002E078
:10167000286840F480302860606890B1FFF7F6FB7E
:1016800006460AE0286840F480202860F0E700BFA2
:10169000FFF7ECFB801B642873D828688003F7D51C
:1016A0000CE0FFF7E3FB064605E000BFFFF7DEFBBB
:1016B000801B6428F0D828688003F7D420789A4EDD
:1016C00080074FF001094FF0000839D5686810F025
:1016D0000C0F07D06868C0F38100022809D1686840
:1016E000C00306D42868800714D52069012808D1D2
:1016F00010E02069B0B1C6F80090FFF7B7FB0746CD
:1017000005E00AE1FFF7B2FBC01B0228C4D8286835
:101710008007F7D52868616920F0F80040EAC10029
:1017200028600DE0C6F80080FFF7A0FB074604E044
:10173000FFF79CFBC01B022823D828688007F7D43A
:10174000207800072CD57948A169D9B1C0F800905C
:10175000FFF78CFB074604E0FFF788FBC01B02285D
:101760000FD8686A8007F7D571484FF4FA510068BE
:10177000B0FBF1F0009000BF0098411E0091FAD23A
:101780000EE080E0C0F80080FFF770FB074604E041
:10179000FFF76CFBC01B022875D8686A8007F7D476
:1017A0002078400760D5E8690027C00008D4E869C0
:1017B00040F08050E861E869012700F08050009017
:1017C0005C480168C90513D40168834641F48071FF
:1017D0000160FFF74BFB824606E000BFFFF746FBC8
:1017E000A0EB0A0064284ED8DBF80000C005F5D550
:1017F000E06801280AD008B1052813D0286A20F033
:1018000001002862286A20F0040002E0286A40F003
:1018100001002862E06841F2883B98B1FFF726FB9F
:1018200082460BE0286A40F004002862EEE700BF21
:10183000FFF71CFBA0EB0A0159455AD8286A80071C
:10184000F6D50CE0FFF712FB824605E0FFF70EFB32
:10185000A0EB0A0159454CD8286A8007F6D41FB17D
:10186000E86920F08050E861E06988B36968C1F3F5
:101870008101022944D00228C6F8608004D0FFF715
:10188000F5FA044638E034E0FFF7F0FA074604E0E2
:10189000FFF7ECFAC01B02282BD828688001F7D488
:1018A000206AB0F5803F05D16868A16820F4003057
:1018B00008436860D4E908010843696821F4741199
:1018C00008436860C6F86090FFF7D0FA044606E067
:1018D00025E000BFFFF7CAFA001B022809D82868D4
:1018E0008001F7D51BE000BFFFF7C0FA001B0228FC
:1018F00002D90320BDE8F88F28688001F4D40EE0F7
:101900000128F7D06868226A00F48031914204D13E
:10191000616A00F47010884201D00120EAE70020DB
:10192000E8E700000010024000004242800442420A
:101930007C0000200070004010B5401EB0F1807F98
:1019400001D3012010BD4FF0E02460610F2160172A
:1019500000F0B6FE0020A06107202061002010BD2D
:1019600070B590F83C20012A2CD0012480F83C402E
:10197000022280F83D2003685A689D6822F07006B4
:101980000A6832435A60104B02689A420ED00F4BDD
:101990009A420BD0B2F1804F08D00D4B9A4205D03D
:1019A0000C4B9A4202D00C4B9A4204D1496825F064
:1019B00080031943916080F83D40002180F83C107D
:1019C000084670BD022070BD002C0140003401406B
:1019D0000004004000080040000C004010B5040066
:1019E00003D094F83D0010B107E0012010BD0020A5
:1019F00084F83C00204600F01FF8022084F83D00E7
:101A0000211D206800F03CFD012084F8460084F888
:101A10003E0084F83F0084F8400084F8410084F8D8
:101A2000420084F8430084F8440084F8450084F8B8
:101A30003D00002010BD000008B50068B0F1804FE7
:101A400008D10548C16941F00101C161C06900F0D8
:101A50000100009008BD00000010024070B504466F
:101A600090F83C000025012817D0012684F83C603E
:101A7000022084F83D002068826822F0770222F478
:101A80007F4282600868502838D00DDC20284FD073
:101A900005DC90B3102811D14AE0022070BD302837
:101AA00046D040280AD13BE060282FD070280DD0C6
:101AB000B0F5805F03D0B0F5005F12D0012584F847
:101AC0003D60002084F83C00284670BDCB68D1E919
:101AD0000121206800F022FD2068816841F0770133
:101AE00009E0CB68D1E90121206800F017FD2068EA
:101AF000816841F480418160E1E719E0CA68496882
:101B0000206800F01DFD5021206806E0CA68496881
:101B1000206800F026FD6021206800F009FDCEE776
:101B2000CA684968206800F00BFD40212068F4E78E
:101B3000226801461046F0E770B5040004D094F81E
:101B40004100002510B106E0012070BD84F840502E
:101B5000204600F023F8242084F841002068C16862
:101B600021F40051C160204600F00EFD206801699B
:101B700021F4904101612068416921F02A0141610D
:101B80002068C16841F40051C1606564202084F878
:101B9000410084F842006563002070BD30B585B017
:101BA000002400940194029403940068144988422C
:101BB00024D11448C16941F48021C161C16901F493
:101BC00080210491816941F00801816180690E4D95
:101BD00000F0080004904FF4806000900220019013
:101BE0000320039069462846FFF73AF8E814CDE948
:101BF0000004694628460294FFF732F805B030BD6C
:101C00000048004000100240000C0140FEE701685F
:101C10004A69D24352050FD46FF480624A610021B1
:101C200040F8301F202242738173026942F004029F
:101C30000261017301207047002070472DE9F843CD
:101C4000044600680D46DDE9089701689846164687
:101C500041F4807101604B4600224FF00111204693
:101C6000009700F06BF848B120680068C00502D505
:101C70004FF4007020640320BDE8F883216805F06C
:101C8000FE0008613B464A461549204600F09EF892
:101C900088B920684169806900903A4649462046E3
:101CA00000F0F2F848B1206C042804D120680168E3
:101CB00041F4007101600120DEE7F5B2B8F1010FD7
:101CC00009D02168300A08613A464946204600F0AA
:101CD000DBF80028E7D1206805610020CCE7000090
:101CE0000200010070B516460D4604461EE020466F
:101CF000FFF78DFF08B1012070BD681C16D0FFF7FB
:101D0000B5F8801BA84200D885B920684069C04357
:101D100040070BD5002044F8300F20216173A073D9
:101D2000216941F0200121612073E4E720684069C6
:101D3000C0434007DBD4002070BD00002DE9F04710
:101D4000984617460D460446C1F30746DDF8209035
:101D50002AE000BFB8F1FF3F26D0FFF787F8A0EBDD
:101D60000901414502D8B8F1000F1DD12068012EAC
:101D700016D0806925EA00000004000C12D0002073
:101D8000B84211D1002044F8300F20216173A073B4
:101D9000216941F02001216120730120BDE8F08715
:101DA0004069E7E70120EBE72068012E0AD080694F
:101DB00025EA00000004000C06D00020B842C9D07B
:101DC0000020EBE74069F3E70120F7E72DE9F04752
:101DD000984616460D4604464FF000094FF0200A7B
:101DE000C1F3074723E020684069C043400515D48C
:101DF0002068016841F40071016021686FF480601F
:101E00004861C4F8309084F83DA084F83E90216C7D
:101E100041F00401216484F83C9021E0701C06D05C
:101E2000FFF724F8A0EB0800B04203D816B1012F49
:101E30001FD021E02068012F15D0806925EA00001D
:101E40000004000C18D000BF44F8309F84F80DA0A7
:101E500084F80E90216941F02001216184F80C90F2
:101E60000120BDE8F087406925EA00000004000C6D
:101E7000EAD12068406901E02068806925EA000015
:101E80000004000CAFD1ECE770B516460D460446D1
:101E90001EE02046FFF7BBFE08B1012070BD681CA4
:101EA00016D0FEF7E3FF801BA84200D885B9206852
:101EB0004069C04300060BD5002044F8300F2021B4
:101EC0006173A073216941F0200121612073E4E76F
:101ED00020684069C0430006DBD4002070BD0000CC
:101EE000FEB500212148009101911F4A0291026034
:101EF0009215826001240473017504254FF4602259
:101F00000561C2614160FEF79FFB08B1FEF7A2FACE
:101F10000226CDE900640724694614480294FEF7BE
:101F200007FB08B1FEF796FA0327CDE9007669466C
:101F30000E48FEF7FDFA08B1FEF78CFA0620CDE94F
:101F4000000769460948FEF7F3FA08B1FEF782FA7E
:101F500069460648CDE90045FEF7EAFA002801D0B7
:101F6000FEF778FAFEBD0000002401409802002030
:101F7000094808B5416941F0010141614069002209
:101F800000F00100009011460B20FFF765F9BDE855
:101F900008400B20FFF752B9001002402DE9F04134
:101FA00086B000262748009601960296039681691E
:101FB00041F010018161816901F010010491816992
:101FC00041F020018161816901F020010491816962
:101FD00041F004018161816901F00401049181698A
:101FE00041F0080181618069174F00F008000490FA
:101FF000002202213846FEF734FFDFF8508000222D
:1020000008214046FEF72DFF02250124CDE90054AA
:1020100069463846CDE90245FEF722FE0820CDE9A3
:10202000000469464046CDE90245FEF719FE60020C
:10203000CDE90006694602944046FEF711FE06B05F
:10204000BDE8F0810010024000080140000C014092
:102050000D4810B50B4901600C49416000214FF457
:1020600080428160C0E9031241618161C161016206
:10207000FEF702FF002803D0BDE81040FEF7EAB9E2
:1020800010BD0000005400400C030020A086010099
:1020900010B586B00024174800940194029403946C
:1020A00004944FF080410594016041F61F41C0E95E
:1020B000011441F28731C0E9031480218161FFF7E7
:1020C0008DFC08B1FEF7C6F94FF4805000906946C8
:1020D0000848FFF7C3FC08B1FEF7BCF9049404A953
:1020E00004480594FFF73CFC002801D0FEF7B2F944
:1020F00006B010BD600300200C4810B50A4901600D
:102100004FF4E1314160002181600C22C160C0E9DF
:1021100004128161C161FFF70FFD002803D0BDE803
:102120001040FEF797B910BD00480040A8030020FA
:10213000FEE7FEE770B5002404F1B000C0B200F085
:1021400039F9002000F036F9102000F033F90025AD
:10215000002000F041F96D1CEDB2802DF8D3641C15
:10216000E4B2082CE8D370BD70B5C820FEF766FD58
:10217000044D0024285D00F01DF9641CE4B2172C06
:10218000F8D370BD8000002010B50446B031C8B24D
:1021900000F010F9102040EA141000F00BF904F0E0
:1021A0000F00BDE8104000F005B900002DE9F04136
:1021B0001E4615460F4680460024FFF7E5FF1148EE
:1021C00000EB8515285D0EB1C043C0B200F004F9E4
:1021D000641CE4B2102CF5D37F1CF9B24046FFF723
:1021E000D3FF002405EB040090F820000EB1C0439B
:1021F000C0B200F0F1F8641CE4B2102CF2D3BDE8D8
:10220000F0810000AE4200082DE9F047203A00249A
:10221000089E0F468146D5B27F2803D900208F1C27
:102220008146FFB2102B394612D0FFF7ADFF1B4994
:1022300005EB450001EB4005285D0EB1C043C0B27F
:1022400000F0CAF8641CE4B2062CF5D3BDE8F087B0
:10225000FFF79AFFDFF8488004EB051118F801003A
:102260000EB1C043C0B200F0B7F8641CE4B2082C51
:10227000F2D37F1CF9B24846FFF786FF0024474699
:1022800004EB05103844007A0EB1C043C0B200F030
:10229000A3F8641CE4B2082CF2D3D7E7A63A0008EE
:1022A000CE3C00082DE9FF4F81B08346DDE90F5693
:1022B00092461046DDF8389001F0CCF904464946C4
:1022C0000A2000F0A9FC01F0F9F90746204601F0C8
:1022D000DDF9514601F0D2FA394601F003FA01F076
:1022E000B9F980465F461AF1FF4F0CD32B462D22D9
:1022F000009658460299FFF787FF07EB5500C7B2D3
:102300006442C8F100084FF00A0B0A2C1ADBDA46C7
:1023100094FBFAF03030C2B22B4600963846029950
:10232000FFF772FF94FBFAF10AFB11403030C2B2A2
:1023300007EB5500C0B22B4600960299FFF764FFE9
:10234000781909E03034E2B22B46009638460299FB
:10235000FFF75AFF07EB5500C4B22B462E2200961A
:1023600020460299FFF750FF04EB550000F0FF0AEA
:10237000B9F1000F1BD0B9F1010418D46F08E1B214
:102380000A2000F049FCB8FBF0F1B1FBFBF2A9EB2D
:1023900004000BFB1212401E00FB07A0C0B22B462C
:1023A000009630320299FFF72FFF641EE7D505B083
:1023B000BDE8F08F01B584B001214FF4807204A80C
:1023C0008DE807000B46002278210248FEF718FE30
:1023D00005B000BD0C03002001B584B001214FF40D
:1023E000807204A88DE807000B464022782102483D
:1023F000FEF706FE05B000BD0C03002070477047D5
:10240000FEF7C4BE30B595B028216846FDF7FEFE44
:1024100014210AA8FDF7FAFE18210FA8FDF7F6FE11
:1024200001210804CDE90010002502950224049141
:10243000CDE907404FF4E01009906846FFF7ECF84B
:1024400008B172B6FEE70AA90F2081E831004FF407
:102450008060CDE90D0502210AA8FFF701F808B157
:1024600072B6FEE74FF4004011900F940FA8FEF7EC
:1024700081FF002801D072B6FEE715B030BD70476D
:10248000F0B50268204C214D214E224F224B4FF0D7
:10249000804CA04209D0984207D0604505D0A842A0
:1024A00003D0B04201D0B84204D122F0700E4A6885
:1024B00042EA0E02A04209D0984207D0604505D0FA
:1024C000A84203D0B04201D0B84203D122F44075F3
:1024D000CA682A434D6922F080022A4302608A6852
:1024E000C2620A688262A04201D0984201D10969A1
:1024F0000163012141610169C90703D0016921F02C
:1025000001010161F0BD0000002C01400004004009
:1025100000080040000C00400034014010B5846801
:1025200042EA032224F47F440A432243826010BD1E
:10253000826822F070020A4342F00701816070470E
:1025400010B5036A046A24F001040462846924F06B
:10255000F00444EA021423F00A020A43846102628E
:1025600010BD10B5036A046A24F010040462846983
:1025700023F0A00324F4704444EA023243EA011138
:102580008261016210BD000070B5044600680169F7
:10259000E26821F44051114301612169A0680843B8
:1025A000616908432168CA6841F20C639A43024397
:1025B000CA6020684169A26921F4407111434161F8
:1025C0001E492068884202D1FEF7F0FF01E0FEF7C5
:1025D000DDFF00EBC00101EB0012606864218000A8
:1025E000B2FBF0F3B3FBF1F36FF018067343B2FBE9
:1025F000F0F5B2FBF0F605EB8305322303EB05158E
:10260000B5FBF1F5B6FBF1F605F0F00505EB0615A7
:10261000B2FBF0F6B2FBF0F0B0FBF1F06FF0180295
:10262000504306EB800003EB0010B0FBF1F0216893
:1026300000F00F002844886070BD000000380140A1
:10264000002310B51A4619461C20FFF7AFFD0023E2
:10265000012219462C20FFF7A9FD0023022219466A
:102660003C20FFF7A3FD0023032219465220FFF769
:102670009DFD0023042219466120FFF797FD0023EA
:10268000052219467220FFF791FD00230622022140
:102690001846FFF78BFD0023072202211020FFF7C9
:1026A00085FD0023082206211846FFF77FFD002341
:1026B00009220621BDE810401020FFF777BDFEE794
:1026C0000907090E002804DB00F1E02080F800145F
:1026D000704700F00F0000F1E02080F8141D7047F3
:1026E0002DE9F0410F46069D06461C462968904696
:1026F00002EBC100D0E90023D4E9000100F05EFE46
:10270000C4E90001296808EBC1003946C0E9006747
:10271000D4E90023304600F0B9FAC4E90001286882
:102720006FF00302401CC11700EB117121F00F0183
:10273000401A2860D4E90001BDE8F04101F04FB92A
:102740000EB5FEF72BFDFFF75DFEFFF727FCFFF749
:102750000FFCFFF7C5FBFFF77BFCFFF7CDFCFFF796
:1027600097FCFFF701FDFFF7E5FCFE48FDF774FE5F
:102770000422FD49FB48FEF741F800220821FB48EE
:10278000FEF76FFB00220221F948FEF76AFBF64CC8
:10279000183C607800284AD1A07838B3FFF7CAFC0B
:1027A00000230A2203211020FFF700FD00230B2243
:1027B00003212020FFF7FAFC00230C220321302004
:1027C000FFF7F4FC00230D2203214020FFF7EEFC6D
:1027D00000230E2203215020FFF7E8FC00230F22E4
:1027E00003216020FFF7E2FC0020A070DF4E4FF4D1
:1027F000007529463046FEF72FFB012817D114201B
:10280000FEF71CFA29463046FEF726FB01280ED1BA
:10281000FFF790FCFFF714FFFEF728FB6061012033
:10282000607029463046FEF717FB0128F9D0607822
:1028300003281BD1CD4E4FF4007529463046FEF7D4
:102840000BFB012812D11420FEF7F8F92946304677
:10285000FEF702FB012809D1002060700120A07062
:1028600029463046FEF7F8FA0128F9D020780028EA
:102870008DD0BD49002018390870BB4D288800F064
:1028800019FC4FF06632BB4B00F064FCDFF8E892B5
:1028900000224B4600F0B6FA04468846688800F0ED
:1028A00009FC4FF06632B34B00F054FC00224B465B
:1028B00000F0A8FA06460F46A88800F0FBFB4FF090
:1028C0006632AC4B00F046FC00224B4600F09AFA10
:1028D00082468B46E88800F0EDFB4FF06632A54B50
:1028E00000F038FC00224B4600F08CFA81460D4681
:1028F000224643464FF066309E4900F05FFD0022BD
:102900009E4B00F027FC00229D4B00F07BFA964A7C
:10291000143A02F11C0300929A4AFFF7E1FE0446C2
:10292000884632463B464FF06630924900F046FDFD
:102930000022924B00F00EFC0022914B00F062FA54
:10294000894A103A02F1200300928E4A8032FFF742
:10295000C7FE06460F4600228B4B4846294600F02C
:102960002DFD8A4A8A4B00F029FD8A4DDFF8289216
:102970002A464B4600F046FA7B4A0C3A02F1240301
:102980000092864AFFF7ACFECDE901104FF06632A7
:10299000834B5046594600F011FD2A464B4600F045
:1029A00031FA714A083A02F1280300927B4A8032D8
:1029B000FFF796FE81460D464FF0804A00225346AF
:1029C0002046414600F0FAFC044688460022534661
:1029D0003046394600F0F2FC064663480F46183888
:1029E0004078012843D1FEF741FA01465E48183885
:1029F0004269891AB1F5FA7F39D9DDE90112C0E9D6
:102A00001295C0E91586C7650465C0E910218246A4
:102A1000012208215548FEF724FA012202215448D8
:102A2000FEF71FFADAE9140100F0FEF8012600248F
:102A300010250096CDE901540246022319462020B4
:102A4000FFF730FCDAE9160100F0EEF80096CDE968
:102A500001540246022319465520FFF723FCFEF7D6
:102A600005FA0221CAF814008AF801108FE63E4CDC
:102A7000183C60780228F9D1FEF7F8F96169401A2C
:102A8000B0F57A7FF2D9D4E91023DDE9011000F026
:102A900095FCC4E91801D4E912234846294600F000
:102AA0008DFCC4E91A01002208213048FEF7D9F94B
:102AB000002202212E48FEF7D4F9D4E9180100F0D3
:102AC000B3F80127002510260097CDE901650246DD
:102AD000022306212020FFF7E5FBD4E91A0100F0CC
:102AE000A3F80097CDE9016502460223062155208F
:102AF000FFF7D8FBD4E914014FF03332294B00F033
:102B000027FC68D8D4E91401274A284B00F0E6FADC
:102B100061D8D4E91601264A264B00F019FC5AD890
:102B2000D4E916014FF06632234B00F0D7FA52D8A1
:102B3000D4E918010022134600F00AFC4BD8D4E96E
:102B40001A010022134600F003FC44D800230E2291
:102B500004212020FFF72AFB00230F22042130202C
:102B60002CE000009802002018000020000C01401A
:102B70000008014066660A4000FEAF4000004C407D
:102B80000000F43F980000200000F03F85EB51B8B2
:102B90001E85EB3F39B4C876BE9F8A3F980100205E
:102BA0006666FE3F33F33B40CDCCCCCCCC0C3D40F5
:102BB0009A99999999F9424066864340FFF7F6FA47
:102BC0000023112204214020FFF7F0FA00231222F3
:102BD000042150201BE000230E2204211820FFF7BF
:102BE000E5FA00230F2204212820FFF7DFFA002353
:102BF000102204213820FFF7D9FA002311220421E2
:102C00004820FFF7D3FA0023122204215820FFF7AF
:102C1000CDFA03206070BAE50246012000E050437F
:102C2000491EC9B2FBD2704721F00042A2F16052A6
:102C3000B2F5801F01F0004328BFD2F17F6C0BD9A1
:102C40005FEA001C43EAC20242EB507018BF7047B3
:102C500028BF20F001007047B2F5801FBCBF1846A6
:102C600070474FEA410C1CF5001F02D2084600F0E5
:102C700000BE70B500F018FB00000089FFF7F6BF3A
:102C80004FF00040A0F580007047000010B591EAB9
:102C9000030F48BF83F0004300F19883841A71EB5F
:102CA000030C05D2121943EB0C03001B61EB0C0162
:102CB000DFF824E14FEA1154A4EB135C1EEA430F42
:102CC00018BF9EEA445F73D023EA0E03DCF1200EA6
:102CD00021EA045143F4801332D322FA0CFE10EBA4
:102CE0000E0023FA0CFE41EB0E01CCF1200E03FA8C
:102CF0000EFE10EB0E0051F10001B1F5801FCCF17A
:102D0000200E32D201EB045112FA0EF2BDE810404F
:102D100058BF7047401C38BF5FEA420218BF704777
:102D2000002814BF20F0010041F100014FEA4103E7
:102D300013F5001F38BF7047A1F1C04100F002BB7E
:102D4000012A43EB0302ACF1200CDCF11F0E32BF71
:102D50004FF0000E23FA0CF310EB030041EB04518B
:102D6000B4EB115FD0D0A1EB045101F580114908FB
:102D70005FEA300001EB04510ED350F1000038BF80
:102D800012FA0EFE08D1BDE81040C9E7401C38BF5A
:102D90005FEA4202CAD1C3E7BDE810404FEA4103EF
:102DA00013F5001F38BF7047A1F1C04100F0CABA47
:102DB0009EEA445F08D011EA5E0FBDE8104004BFF0
:102DC00001F0004100207047BDE8104070B500F0F0
:102DD0006BFA00BF64FBBE3E0000E0FF02494FF00B
:102DE000000000F0CABD00BF0000F87F491058BFC6
:102DF000C1F140415B1058BFC3F140438B42EFF338
:102E0000008070472DE9C04130B4DFF8A0C23CEA31
:102E1000111418BF3CEA131400F0EC8081EA03059A
:102E20001CEA111444EAD57418BF1CEA131500F00B
:102E3000C780A4EB05044FF0004545EAC12145EAEF
:102E4000C32341EA505143EA525304F17F7499423B
:102E500004F500344FEAC0204FEAC22208BF904276
:102E600000F09C804FEA13650FF24016765D4FEA42
:102E7000134506FB05F7C7F1807706FB07F74FEA16
:102E8000D737A7FB03687642C8F58038A7FB06CE84
:102E900038BFA8F1010807FB08E64FF0000EA6FBBB
:102EA000028CE6FB03CEDCF1000CCEF1004E38BF05
:102EB000AEF1010EA6FB0C584FF000074FF00005D5
:102EC000E6FB0E87A1FB08C6A0FB07CE16EB0E069D
:102ED00045F10005E1FB076515F1E04E7EBFA4F565
:102EE00080345FEA46066D4116F1800745F1000522
:102EF0004FEA17274FEA066647EA0567A6F1DE465E
:102F0000B6F1805F4FEA15251FD9384624F0010C31
:102F100005EBC471BCF1FE6F01EB0C1102D8F0BCE3
:102F2000BDE8008124425CBF01F5801E9EEAC47F9B
:102F300002D4F0BCBDE80081244238D4F0BCA1F139
:102F4000C041BDE8004100F0FDB94FEAD22242EA9B
:102F500043524FEAD323A7FB02864FEAD02040EA30
:102F6000415007FB03661EEA0E0F4FEAD12105FB15
:102F7000026658BFA6EB0056B6EB00564FEA520E5B
:102F80004EEAC37E18EB0E0E56EB530EBDD518EB72
:102F900002085E417F1C55F10005B6E74FF480152D
:102FA0004FF000074FF000064FF00008ADE7F0BC0F
:102FB0004FF0000001F1C04101F00041BDE8008187
:102FC00011EA0C1F0CEA131500D00CE013EA0C1FD9
:102FD00000F025804FF00000F0BC81EA030101F011
:102FE0000041BDE80081F0BCBDE8004181EA030179
:102FF00000F0A8B9F0BCBDE8004170B500F054F98C
:10300000097EFC3E00F007B881EA03014FF00000A2
:1030100001F00041704781EA030100F093B9F0BC70
:10302000BDE800414FF0000021497047FFFDFBF96A
:10303000F7F5F4F2F0EEEDEBE9E8E6E4E3E1E0DEEB
:10304000DDDBDAD8D7D5D4D3D1D0CFCDCCCBCAC85D
:10305000C7C6C5C4C2C1C0BFBEBDBCBBBAB9B8B784
:10306000B6B5B4B3B2B1B0AFAEADACABAAA9A8A877
:10307000A7A6A5A4A3A3A2A1A09F9F9E9D9C9C9B45
:103080009A999998979796959594939392919190F0
:103090008F8F8E8E8D8C8C8B8B8A89898888878781
:1030A0008685858484838382828181800000FF07F6
:1030B0000000F87FB0FA80F310FA03F10AD0C3F1F0
:1030C0001D0303F580634FEA41504FEA035202EBC0
:1030D000D12170474FF000007047000051EA030C07
:1030E00017D41CF5801F58BFBCF5801F00F1068067
:1030F000994218BF704708BF9042704707D711F533
:10310000801F58BF13F5801F19D499427047894218
:1031100070471CF5801F08D5BCF5801FF7D58B4282
:1031200018BF704708BF824270474FF4001C1CEB69
:10313000410F38BF1CEB430F01D28B42704770B573
:1031400000F0B2F8922449004FF000514FF0805344
:10315000FFF74CBEDFF848C170B51CEA111E1EBF58
:103160001CEA13159EEA0C0F95EA0C0F00F06F8015
:1031700081EA030423EA4C134EEAD47E21EA4C117F
:1031800041F4801143F48013AE44A1FB024CA0FB38
:103190000365AEF17F7E361955EB0C05A1FB034CA0
:1031A0004CF10003A0FB021C16EB0C06654153F129
:1031B0000003094218BF46F0010613F4007F0BD14B
:1031C0004FEA03314FEA0530340341EA155140EA32
:1031D00016506FF003020AE04FEAC3214FEAC52000
:1031E000F40241EA555140EA56506FF0020202EBF8
:1031F0002E4201EB025585EACE710AD05FEA440CFB
:1032000018BF24F0004450F1000041F1000120EA11
:10321000D47040F2FE7C624500D270BDA84214BF5B
:103220004FF080444FF04044002E08BF0024BEF110
:10323000806FA8BFA1F1C041BDE8704080F28280DC
:103240004FF0000001F1C04101F0004170479EEADB
:103250000C0F0CEA131518BF95EA0C0F06D04FF0AF
:10326000000081EA030E0EF0004170BD00F01CF872
:103270008900013E00F007B800F009B84FEA430C9E
:103280005FEA5C5C08D081EA030100F05BB84FEABA
:10329000410C5FEA5C5CF6D14FF0000001497047D9
:1032A0000000FF070000F87F0EF1020E2EF0030E63
:1032B0005EF8046B364205D4012A43EB030515F58D
:1032C000001F12D8012841EB010C1CF5001F0CD87F
:1032D0000ED14FEAD17C15F5001F0CEB4C0C0CF114
:1032E000020C08BF4CEBD37C04E04FF0080C01E06B
:1032F0004FEAD37C0CEB4C0526FA05F606F00706E0
:10330000B6F1040C06D20EEB860CBDE870404CF012
:10331000010C6047DFE80CF0090B02024FF000419E
:103320004FF00000A1F5002170BD1946104601289C
:1033300051EB010418BFD4F5001484BF002001F044
:10334000004170BD0808A0F500114FEA3101704737
:1033500053EA010C17D41CF5801F58BFBCF5801F21
:1033600000F106808B4218BF704708BF8242704749
:1033700007D713F5801F58BF11F5801F19D48B4252
:1033800070479B4270471CF5801F08D5BCF5801F15
:10339000F7D5994218BF704708BF904270474FF465
:1033A000001C1CEB430F38BF1CEB410F01D29942AC
:1033B00070470FB40CBC03BCFFF7C1BE10B591EA57
:1033C000030F48BF83F000433FF568AC841A71EBEC
:1033D000030C07D212198CF0004C43EB0C03001BBA
:1033E00061EB0C01DFF8A4E14FEA1154A4EB135C8C
:1033F0001EEA430F18BF9EEA445F00F0B08023EA44
:103400006E03524221EA0451C3EB6E0338BF5B1EC8
:10341000DCF1200E25D322FA0CFE10EB0E0043FA4D
:103420000CFE41EB0E01CCF1200E03FA0EFE10EB68
:103430000E0051F10001CCF1200E29D412FA0EF247
:1034400001EB0451BDE8104058BF7047401C1CBF41
:10345000B2F1004F704700280CBF491C20F001005A
:10346000704712EB020E43EB030218BF4FF0010E40
:103470004EEA4202ACF1200CDCF11E0E54D943FAA4
:103480000CFE10EB0E0051F1FF31CCF11E0ED5D524
:103490000EF1010E12FA0EFE404141EB010101EB6B
:1034A000445C5FEA5C5C10D910EBDE7001EB045108
:1034B00038BFBEF1004FBDE8104018BF704700286C
:1034C0000CBF491C20F00100704730D24FEAD42CC9
:1034D00011F5001124F400641BD0B1FA81F20B3A0B
:1034E000A41AA41ED2F12003914030FA03F3194329
:1034F000904001EBCC71002C01EB0451BDE8104071
:10350000A8BF704701F1C0414FF0000001F0004139
:103510007047B0FA80F310FA03F100D110BDE41A3D
:10352000173C4805C90AE4E701EB045110BD4910F6
:1035300001EB0451BDE810404FEA300002E04FF0CB
:10354000000170474A0008BF0042F8D0B2F5001FE2
:1035500028BF704701F000414FF0000070479EEA1D
:10356000445F07D011EA5E0FBDE8104004BF0021A0
:1035700000207047BDE8104070B5FFF795FE00BF12
:1035800040DFF63E83F00041104670470000E0FF48
:1035900090EA010F48BF81F0004100F18081421A9A
:1035A0003CBF801A89184FEAD0524FF07F4C1CEA7A
:1035B000410FA2EBD15318BF9CEA026F00F03B8091
:1035C0004FF0004C4CEA00204CEA012121FA03FCA8
:1035D00010EB0C0C1ED202F1FF325FEA1C2040EB14
:1035E000C25038BF70471CF07F0F4FEA400C18BF25
:1035F000BCF17F4F38BF7047C3F12003994008BF2B
:1036000020F00100BCF17F4F38BF7047A0F1C040EF
:1036100000F02FB94FEA3C00000A40EBC25028BF2F
:103620001CF0FF0F4FEA400CE6D018BFBCF17F4FF3
:1036300038BF7047EAE79CEA026F05D010EA5C0FDA
:1036400008BF00F00040704710B500F0CCF800BF94
:1036500064FBBE3E41000B0ED3F19E0208D950F42C
:1036600000034FEA032323FA02F048BF40427047A9
:1036700010B500F0B8F800BF4992248000207047D0
:103680006FF0004282EA20007047000010F0004115
:1036900048BF4042B0FA80F310FA03F2C3F19D0331
:1036A0000BD051EAC35101EB1220530638BF7047CB
:1036B00000F1010008BF20F001007047B0FA80F36C
:1036C00010FA03F2C3F19D030AD0D90501EB1220D1
:1036D000530638BF704700F1010008BF20F0010019
:1036E000704700004FF47F0C1CEAD0121EBF1CEA8A
:1036F000D11392EA0C0F93EA0C0F00F0478090EA86
:10370000010F48BF42F480724FF0004C4CEA002099
:103710004CEA012102EB0302A0FB0113A2F5000217
:10372000002918BF43F001035B0028BF4FEA3303B1
:1037300042EB22425FEA132C4CEBC2502EBFBCEB93
:10374000436FB2F57C0F70474FEA036CBCF1004F3A
:1037500008BF20F00100B2F57C0F38BF70470BD5D1
:1037600082F0FF0212F5803FC8BF704700F1C040F1
:10377000D8BF00F00040704700F5000C5FEA4C0C29
:1037800048BF7047B0F1C04000F073B890EA010F35
:103790000CEAD11348BF42F48072624538BF6345DA
:1037A00004D280EA010000F00040704710B500F03C
:1037B0001AF800BF8900013E00F007B800F009B810
:1037C0005FEA410C5FEA1C6C08D080EA010000F05F
:1037D00050B85FEA400C5FEA1C6CF6D14FF0004035
:1037E000A0F5800070470EF1020E2EF0030E5EF879
:1037F000044B244204D44FEA4102B2F17F4F11D866
:103800004FEA4003B3F17F4F0CD80ED14FEAD07C82
:10381000B2F17F4F0CEB4C0C0CF1020C08BF4CEBDF
:10382000D17C04E04FF0080C01E04FEAD17C0CEBB6
:103830004C0324FA03F404F00704B4F1040C06D298
:103840000EEB840CBDE810404CF0010C6047DFE843
:103850000CF0070802024FF00040A0F5800010BDF8
:103860000846420018BFD2F1807288BF00F00040C5
:1038700010BDFF2141EAD050C005704780F00040E4
:1038800090EA010F7FF58BAE81F0004100F007B8A0
:1038900090EA010F48BF81F000413FF580AE421A27
:1038A00004D882F00042A0EB020011444FEAD0524B
:1038B0004FF07F4C1CEA410FA2EBD15318BF9CEA9A
:1038C000026F4AD04FF0004C4CEA00204CEA012134
:1038D00021FA03FCB0EB0C0C0FD412F0FE0F36D023
:1038E0005FEA4C001DD5001240EBC25038BF704754
:1038F0001CF03F0F18BF70470BE0A2F101025FEA16
:103900001C2040EBC25038BF70471CF07F0F18BF1F
:103910007047C3F12003994014BF401E20F00100FE
:10392000704780084FEA122308BF7047B0FA80FC46
:10393000A2EB0C02CCF1280C60FA0CF093EA122FE7
:1039400004BF00EBC25070474FEAC3707047130AC0
:103950005FEADC1008BF7047F6E79CEA026F04D00C
:1039600010EA5C0F08BF0020704710B5FFF73BFF5F
:1039700040DFF63E81F0004070470CF00F03092B4A
:1039800008BF082000F059800A2B0BD0082B18BF65
:10399000704708BF1CF0400F0AD04FF000004FF0F6
:1039A000000170471CF0400F18BF4FF000407047F7
:1039B0001CF0100F08D020F0704300F07F4242EA64
:1039C000D3014FEA4370704700F0604021F07F421E
:1039D00042EA000201F07F4040EA727070474FF007
:1039E000FF0C4CF4E06C1CEA11531CBF9CEA030C66
:1039F0009445C2BFDA4201EB02517047002B0DD053
:103A0000BCF1000F0FD0002A01F00041A4BF41F02B
:103A1000E04141F07F614FF00000704701F000414C
:103A20004FF00000704750EA01334FF09B0C18BF75
:103A30004CF0806C7FF4D2A970471CF4801F11D029
:103A40001CF4E02F03D06FEACC31490070474FF0EF
:103A50004050EFF3008222F0704242EA000282F30B
:103A6000008870474FF00000704701020203040510
:103A7000060708090A0B0C0D0E0F101001020203B5
:103A80000405060708090A0B0C0D0E0F10100000A4
:103A900000000000000001020304060708090000FE
:103AA0000000010203040000000000000000002FDD
:103AB000000000000700070000147F147F1400249A
:103AC0002A7F2A12006264081323003649552250C7
:103AD00000000503000000001C22410000004122FC
:103AE0001C000014083E08140008083E08080000E6
:103AF00000A06000000808080808000060600000DE
:103B0000002010080402003E5149453E0000427F5B
:103B10004000004261514946002141454B310018A7
:103B200014127F10002745454539003C4A49493069
:103B30000001710905030036494949360006494923
:103B4000291E00003636000000005636000000082E
:103B5000142241000014141414140000412214080B
:103B600000020151090600324959513E007C1211F0
:103B7000127C007F49494936003E41414122007F85
:103B80004141221C007F49494941007F090909013F
:103B9000003E4149497A007F0808087F0000417FC4
:103BA0004100002040413F01007F08142241007F76
:103BB00040404040007F020C027F007F0408107FDD
:103BC000003E4141413E007F09090906003E415146
:103BD000215E007F09192946004649494931000103
:103BE000017F0101003F4040403F001F2040201F57
:103BF000003F4038403F006314081463000708701A
:103C0000080700615149454300007F4141000055CC
:103C10002A552A55000041417F0000040201020498
:103C20000040404040400000010204000020545485
:103C30005478007F484444380038444444200038D5
:103C40004444487F00385454541800087E09010247
:103C50000018A4A4A47C007F080404780000447D1C
:103C60004000004080847D00007F10284400000058
:103C7000417F4000007C04180478007C080404782C
:103C800000384444443800FC242424180018242418
:103C900018FC007C08040408004854545420000414
:103CA0003F444020003C4040207C001C2040201C21
:103CB000003C4030403C004428102844001CA0A098
:103CC000A07C004464544C441414141414140000D4
:103CD00000000000000000000000000000000000E4
:103CE00000F8000000000000003330000000001069
:103CF0000C06100C0600000000000000000040C090
:103D00007840C0784000043F04043F040400007081
:103D100088FC08300000001820FF211E0000F00879
:103D2000F000E018000000211C031E211E0000F01E
:103D30000888700000001E21232419272110101666
:103D40000E00000000000000000000000000000065
:103D500000E01804020000000007182040000002E4
:103D60000418E00000000040201807000000404058
:103D700080F0804040000202010F010202000000BA
:103D800000F0000000000101011F0101010000001E
:103D900000000000000080B0700000000000000083
:103DA000000000000000000101010101010100000C
:103DB00000000000000000303000000000000000A3
:103DC000000080601804006018060100000000E098
:103DD00010080810E000000F102020100F00001045
:103DE00010F8000000000020203F2020000000709C
:103DF0000808088870000030282422213000003094
:103E00000888884830000018202020110E0000008B
:103E1000C02010F8000000070424243F240000F80C
:103E20000888880808000019212020110E0000E0F1
:103E3000108888180000000F112020110E00003893
:103E40000808C83808000000003F000000000070AB
:103E5000880808887000001C222121221C0000E034
:103E600010080810E0000000312222110F000000AD
:103E700000C0C00000000000003030000000000062
:103E800000800000000000008060000000000000D2
:103E9000804020100800000102040810200040406B
:103EA00040404040400004040404040404000008AE
:103EB0001020408000000020100804020100007063
:103EC00048080808F0000000003036010000C0304B
:103ED000C828E810E0000718272423140B0000006E
:103EE000C038E0000000203C23020227382008F8F8
:103EF000888888700000203F202020110E00C030EC
:103F0000080808083800071820202010080008F8C2
:103F100008080810E000203F202020100F0008F8BB
:103F20008888E8081000203F20202320180008F887
:103F30008888E8081000203F200003000000C030FF
:103F400008080838000007182020221E020008F880
:103F500008000008F808203F210101213F20000847
:103F600008F8080800000020203F20200000000082
:103F70000808F8080800C08080807F00000008F86A
:103F800088C028180800203F20012638200008F8A3
:103F9000080000000000203F20202020300008F80A
:103FA000F800F8F80800203F003F003F200008F824
:103FB00030C00008F808203F200007183F00E0103C
:103FC00008080810E0000F10202020100F0008F84B
:103FD00008080808F000203F210101010000E0105E
:103FE00008080810E0000F18242438504F0008F883
:103FF000888888887000203F2000030C30200070E3
:104000008808080838000038202121221C001808E0
:1040100008F8080818000000203F2000000008F8F9
:1040200008000008F808001F202020201F00087842
:10403000880000C83808000007380E010000F808A2
:1040400000F80008F800033C0700073C03000818CC
:1040500068808068180820302C03032C3020083832
:10406000C800C83808000000203F200000001008E9
:104070000808C83808002038262120201800000031
:1040800000FE020202000000007F40404000000CE1
:1040900030C000000000000000010638C00000022F
:1040A0000202FE000000004040407F0000000000CF
:1040B00004020202040000000000000000000000F2
:1040C00000000000000080808080808080800002EE
:1040D00002040000000000000000000000000000DA
:1040E0008080808000000019242222223F2008F8CE
:1040F000008080000000003F112020110E00000011
:10410000008080800000000E11202020110000009F
:1041100000808088F800000E112020103F20000051
:10412000808080800000001F222222221300008055
:1041300080F0888888180020203F202000000000A0
:10414000808080808000006B94949493600008F8D5
:10415000008080800000203F210000203F20008060
:104160009898000000000020203F20200000000060
:1041700000809898000000C08080807F000008F8D0
:10418000000080808000203F24022D3020000008A5
:1041900008F8000000000020203F20200000808060
:1041A000808080808000203F20003F20003F808072
:1041B000008080800000203F210000203F20000080
:1041C000808080800000001F202020201F00808031
:1041D00000808000000080FFA12020110E00000060
:1041E000008080808000000E112020A0FF80808051
:1041F00080008080800020203F21200001000000FE
:1042000080808080800000332424242419000080D2
:1042100080E0808000000000001F202000008080DF
:10422000000000808000001F202020103F208080A0
:1042300080000080808000010E3008060100808030
:104240000080008080800F300C030C300F00008055
:104250008000808080000020312E0E312000808080
:1042600080000080808080818E70180601000080B0
:104270008080808080000021302C222130000000CE
:104280000000807C020200000000003F404000026D
:10429000027C800000000040403F00000000000061
:1042A0000000FF00000000000000FF000000000010
:1042B000181610D0B89790909092941000000000BB
:1042C00000000000000000000000000000000020CE
:1042D000108C8380414628102844438080000000D1
:1042E00000000000000000000000000000000000CE
:1042F000FC565554FC0010101010FF101000000068
:104300000000000000000000000000000000024269
:1043100023124A867F00000146807F0000000000D3
:104320000000000000000000000000000000C808BD
:10433000090EE808405E5050DF50505E400000001B
:104340000000000000000000000000000000206FDE
:10435000201C131000FE027F027E82FE000000007F
:10436000000000000000000000000000000000004D
:10437000FE0202F2121212F20202FE00000000001F
:10438000000000000000000000000000000000002D
:104390007F2020272424242720207F0000000000E5
:1043A000000000000000000000000000000000FC11
:1043B0000000FF004020D8171010F010100000007F
:1043C0000000000000000000000000000000000FDE
:1043D0000402FF00804021160816214080000000E2
:1043E0000000000000000000000000000000C808FD
:1043F000090EE808405E5050DF50505E400000005B
:104400000000000000000000000000000000206F1D
:10441000201C131000FE027F027E82FE00000000BE
:10442000000000000000000000000000000000008C
:10443000F888888888FF88888888F800000000004D
:10444000000000000000000000000000000000006C
:104450001F080808087F888888889F80F00000006F
:10446000000000000000000000000000000000FE4E
:104470000222DA0600FE22222222FE0000000000B4
:10448000000000000000000000000000000000FF2D
:1044900008100847407F424242427F4040000000EF
:1044A000000000000000000000000000000084E4A4
:1044B0005CC40008C8398E0808CC3B88080000009E
:1044C0000000000000000000000000000000003FAD
:1044D000103F00635A46E100635A46E100000000C5
:1044E000000000000000000000000000000020208C
:1044F000FF20200042E2524AC64240C000000000B5
:10450000000000000000000000000000000010306B
:104510001F0828108C4320184780403F00000000EF
:10452000000000000000000000000000000010106B
:1045300010FF9020988888E98E8888A8980000004D
:104540000000000000000000000000000000024227
:10455000817F000080844B281028478000000000E5
:104560000000000000000000000000000000020247
:1045700002020202FE020242820202020200000065
:10458000000000000000000000000000000000002B
:1045900000000000FF000000000106000000000015
:1045A00000000000000000000000000000001010EB
:1045B00010FF9020988888E98E8888A898000000CD
:1045C00000000000000000000000000000000242A7
:1045D000817F000080844B28102847800000000065
:1045E000000000000000000000000000000040305B
:1045F000EF242480E49C105454FF547C10000000ED
:1046000000000000000000000000000000000101A8
:104610007F21512618274445455F45454400000049
:10462000000000000000000000000000000010601A
:10463000028C00FE02F202FE00F800FF0000000003
:104640000000000000000000000000000000040462
:104650007E018047300F10270047807F0000000058
:1046600000000000000000000000000000004040CA
:1046700042CC009090909090FF1011161000000016
:10468000000000000000000000000000000000002A
:10469000003F1028603F1010010E3040F000000075
:1046A0000000000000000000000000000000000208
:1046B0000202028242F20E42820202020000000066
:1046C00000000000000000000000000000001008D2
:1046D0000402010000FF00000001020C00000000C5
:1046E000000000000000000000000000000040404A
:1046F00020205048444344485020204040000000BF
:1047000000000000000000000000000000000000A9
:1047100000FE42424242424242FE000000000000CF
:104720000000000000000000000000000000101069
:10473000D0FF90201018A744A4140C000000000023
:104740000000000000000000000000000000040362
:1047500000FF000502FD44444445FD020200000044
:104760000000000000000000000000000000000049
:104770009047000800000020980000006C0100082D
:104780002848000898000020B809000088010008A7
:104790000000010000000000000000000000000018
:1047A0000000000000000000000000000000000009
:1047B00000000000000000000000000000000000F9
:1047C00000000000000000000000000000000000E9
:1047D00000000000000000000000000000000000D9
:1047E00000000000000000000000000000000000C9
:1047F00000000000000000000000000000000000B9
:1048000001000000100000000000000000127A000B
:10481000AED580A83FD30040A1C8DA1281CFD9F12C
:08482000DB40A4A68D14AF00DB
:0400000508000131BD
:00000001FF
